{
  "contractName": "LandReg",
  "abi": [
    {
      "inputs": [],
      "payable": false,
      "stateMutability": "nonpayable",
      "type": "constructor"
    },
    {
      "anonymous": false,
      "inputs": [
        {
          "indexed": false,
          "internalType": "uint256",
          "name": "_id",
          "type": "uint256"
        }
      ],
      "name": "CreateUserEvent",
      "type": "event"
    },
    {
      "anonymous": false,
      "inputs": [
        {
          "indexed": false,
          "internalType": "uint256",
          "name": "sender",
          "type": "uint256"
        },
        {
          "indexed": false,
          "internalType": "uint256",
          "name": "value",
          "type": "uint256"
        }
      ],
      "name": "DeclarePropertyEvent",
      "type": "event"
    },
    {
      "anonymous": false,
      "inputs": [
        {
          "indexed": false,
          "internalType": "bool",
          "name": "state",
          "type": "bool"
        }
      ],
      "name": "LogBool",
      "type": "event"
    },
    {
      "anonymous": false,
      "inputs": [
        {
          "indexed": false,
          "internalType": "uint256",
          "name": "state",
          "type": "uint256"
        }
      ],
      "name": "LogUint256",
      "type": "event"
    },
    {
      "anonymous": false,
      "inputs": [
        {
          "indexed": false,
          "internalType": "uint256",
          "name": "sender",
          "type": "uint256"
        },
        {
          "indexed": false,
          "internalType": "uint256",
          "name": "receiver",
          "type": "uint256"
        },
        {
          "indexed": false,
          "internalType": "uint256",
          "name": "value",
          "type": "uint256"
        }
      ],
      "name": "TransferPropertyEvent",
      "type": "event"
    },
    {
      "constant": true,
      "inputs": [],
      "name": "owner",
      "outputs": [
        {
          "internalType": "address",
          "name": "",
          "type": "address"
        }
      ],
      "payable": false,
      "stateMutability": "view",
      "type": "function"
    },
    {
      "constant": true,
      "inputs": [
        {
          "internalType": "address",
          "name": "",
          "type": "address"
        },
        {
          "internalType": "uint256",
          "name": "",
          "type": "uint256"
        }
      ],
      "name": "propertyFireBase",
      "outputs": [
        {
          "internalType": "bool",
          "name": "",
          "type": "bool"
        }
      ],
      "payable": false,
      "stateMutability": "view",
      "type": "function"
    },
    {
      "constant": true,
      "inputs": [
        {
          "internalType": "uint256",
          "name": "",
          "type": "uint256"
        }
      ],
      "name": "users",
      "outputs": [
        {
          "internalType": "address",
          "name": "",
          "type": "address"
        }
      ],
      "payable": false,
      "stateMutability": "view",
      "type": "function"
    },
    {
      "constant": false,
      "inputs": [
        {
          "internalType": "uint256",
          "name": "_id",
          "type": "uint256"
        },
        {
          "internalType": "address",
          "name": "_address",
          "type": "address"
        }
      ],
      "name": "createUser",
      "outputs": [
        {
          "internalType": "bool",
          "name": "",
          "type": "bool"
        }
      ],
      "payable": false,
      "stateMutability": "nonpayable",
      "type": "function"
    },
    {
      "constant": false,
      "inputs": [
        {
          "internalType": "uint256",
          "name": "sender",
          "type": "uint256"
        },
        {
          "internalType": "address",
          "name": "_address",
          "type": "address"
        },
        {
          "internalType": "uint256",
          "name": "value",
          "type": "uint256"
        }
      ],
      "name": "registerLand",
      "outputs": [
        {
          "internalType": "bool",
          "name": "",
          "type": "bool"
        }
      ],
      "payable": false,
      "stateMutability": "nonpayable",
      "type": "function"
    },
    {
      "constant": false,
      "inputs": [
        {
          "internalType": "uint256",
          "name": "sender",
          "type": "uint256"
        },
        {
          "internalType": "address",
          "name": "_address",
          "type": "address"
        },
        {
          "internalType": "uint256",
          "name": "receiver",
          "type": "uint256"
        },
        {
          "internalType": "uint256",
          "name": "value",
          "type": "uint256"
        }
      ],
      "name": "transferProperty",
      "outputs": [
        {
          "internalType": "bool",
          "name": "",
          "type": "bool"
        }
      ],
      "payable": false,
      "stateMutability": "nonpayable",
      "type": "function"
    }
  ],
  "bytecode": "0x608060405234801561001057600080fd5b50306000806101000a81548173ffffffffffffffffffffffffffffffffffffffff021916908373ffffffffffffffffffffffffffffffffffffffff160217905550610cf1806100606000396000f3fe608060405234801561001057600080fd5b50600436106100625760003560e01c80633535a44214610067578063365b98b2146100cd578063480abaab1461013b5780637e9e1a1b146101b55780638da5cb5b14610225578063b854b00f1461026f575b600080fd5b6100b36004803603604081101561007d57600080fd5b81019080803573ffffffffffffffffffffffffffffffffffffffff169060200190929190803590602001909291905050506102d5565b604051808215151515815260200191505060405180910390f35b6100f9600480360360208110156100e357600080fd5b8101908080359060200190929190505050610304565b604051808273ffffffffffffffffffffffffffffffffffffffff1673ffffffffffffffffffffffffffffffffffffffff16815260200191505060405180910390f35b61019b6004803603608081101561015157600080fd5b8101908080359060200190929190803573ffffffffffffffffffffffffffffffffffffffff1690602001909291908035906020019092919080359060200190929190505050610337565b604051808215151515815260200191505060405180910390f35b61020b600480360360608110156101cb57600080fd5b8101908080359060200190929190803573ffffffffffffffffffffffffffffffffffffffff16906020019092919080359060200190929190505050610767565b604051808215151515815260200191505060405180910390f35b61022d610afc565b604051808273ffffffffffffffffffffffffffffffffffffffff1673ffffffffffffffffffffffffffffffffffffffff16815260200191505060405180910390f35b6102bb6004803603604081101561028557600080fd5b8101908080359060200190929190803573ffffffffffffffffffffffffffffffffffffffff169060200190929190505050610b21565b604051808215151515815260200191505060405180910390f35b60026020528160005260406000206020528060005260406000206000915091509054906101000a900460ff1681565b60016020528060005260406000206000915054906101000a900473ffffffffffffffffffffffffffffffffffffffff1681565b60008073ffffffffffffffffffffffffffffffffffffffff166001600085815260200190815260200160002060009054906101000a900473ffffffffffffffffffffffffffffffffffffffff1673ffffffffffffffffffffffffffffffffffffffff16141561040e576040517f08c379a000000000000000000000000000000000000000000000000000000000815260040180806020018281038252601a8152602001807f7265636569766572206973206e6f74207265676973746572656400000000000081525060200191505060405180910390fd5b8373ffffffffffffffffffffffffffffffffffffffff166001600087815260200190815260200160002060009054906101000a900473ffffffffffffffffffffffffffffffffffffffff1673ffffffffffffffffffffffffffffffffffffffff16146104e2576040517f08c379a000000000000000000000000000000000000000000000000000000000815260040180806020018281038252601f8152602001807f77726f6e67206164647265737320696e76616c6964206f7065726174696f6e0081525060200191505060405180910390fd5b600260006001600088815260200190815260200160002060009054906101000a900473ffffffffffffffffffffffffffffffffffffffff1673ffffffffffffffffffffffffffffffffffffffff1673ffffffffffffffffffffffffffffffffffffffff168152602001908152602001600020600083815260200190815260200160002060009054906101000a900460ff166105e5576040517f08c379a000000000000000000000000000000000000000000000000000000000815260040180806020018281038252601c8152602001807f796f7520646f206e6f74206f776e20746869732070726f70657274790000000081525060200191505060405180910390fd5b600260006001600088815260200190815260200160002060009054906101000a900473ffffffffffffffffffffffffffffffffffffffff1673ffffffffffffffffffffffffffffffffffffffff1673ffffffffffffffffffffffffffffffffffffffff168152602001908152602001600020600083815260200190815260200160002060006101000a81549060ff02191690556001600260006001600087815260200190815260200160002060009054906101000a900473ffffffffffffffffffffffffffffffffffffffff1673ffffffffffffffffffffffffffffffffffffffff1673ffffffffffffffffffffffffffffffffffffffff168152602001908152602001600020600084815260200190815260200160002060006101000a81548160ff0219169083151502179055507f3786e7925a36eadaa928aac78f16952e8178d2a2f1f66eea3b2f1647374a3c9885848460405180848152602001838152602001828152602001935050505060405180910390a160019050949350505050565b60008073ffffffffffffffffffffffffffffffffffffffff166001600086815260200190815260200160002060009054906101000a900473ffffffffffffffffffffffffffffffffffffffff1673ffffffffffffffffffffffffffffffffffffffff16141561083e576040517f08c379a000000000000000000000000000000000000000000000000000000000815260040180806020018281038252601a8152602001807f7265636569766572206973206e6f74207265676973746572656400000000000081525060200191505060405180910390fd5b8273ffffffffffffffffffffffffffffffffffffffff166001600086815260200190815260200160002060009054906101000a900473ffffffffffffffffffffffffffffffffffffffff1673ffffffffffffffffffffffffffffffffffffffff1614610912576040517f08c379a000000000000000000000000000000000000000000000000000000000815260040180806020018281038252601f8152602001807f77726f6e67206164647265737320696e76616c6964206f7065726174696f6e0081525060200191505060405180910390fd5b600260006001600087815260200190815260200160002060009054906101000a900473ffffffffffffffffffffffffffffffffffffffff1673ffffffffffffffffffffffffffffffffffffffff1673ffffffffffffffffffffffffffffffffffffffff168152602001908152602001600020600083815260200190815260200160002060009054906101000a900460ff1615610a16576040517f08c379a00000000000000000000000000000000000000000000000000000000081526004018080602001828103825260158152602001807f796f75206f776e20746869732070726f7065727479000000000000000000000081525060200191505060405180910390fd5b6001600260006001600088815260200190815260200160002060009054906101000a900473ffffffffffffffffffffffffffffffffffffffff1673ffffffffffffffffffffffffffffffffffffffff1673ffffffffffffffffffffffffffffffffffffffff168152602001908152602001600020600084815260200190815260200160002060006101000a81548160ff0219169083151502179055507f11ae8f67c9d5794770fa13c55e7729dafcb35b52ad0280032cd3a79a57bef6bf8483604051808381526020018281526020019250505060405180910390a1600190509392505050565b6000809054906101000a900473ffffffffffffffffffffffffffffffffffffffff1681565b60008073ffffffffffffffffffffffffffffffffffffffff166001600085815260200190815260200160002060009054906101000a900473ffffffffffffffffffffffffffffffffffffffff1673ffffffffffffffffffffffffffffffffffffffff161480610bee57508173ffffffffffffffffffffffffffffffffffffffff166001600085815260200190815260200160002060009054906101000a900473ffffffffffffffffffffffffffffffffffffffff1673ffffffffffffffffffffffffffffffffffffffff16145b610c60576040517f08c379a000000000000000000000000000000000000000000000000000000000815260040180806020018281038252601e8152602001807f616c7265616479207769746820646966666572656e742061646472657373000081525060200191505060405180910390fd5b816001600085815260200190815260200160002060006101000a81548173ffffffffffffffffffffffffffffffffffffffff021916908373ffffffffffffffffffffffffffffffffffffffff160217905550600190509291505056fea265627a7a7231582071bf31a34ced3aadbe82babb0607faa9ce01da13dceab923b00350e0b8960be664736f6c63430005100032",
  "source": "pragma solidity >=0.4.22 <0.8.0;\r\n\r\n\r\ncontract LandReg {\r\n    //is Ownable{\r\n\r\n    // struct Data {\r\n    //     string name;\r\n    //     string long;\r\n    //     string lat;\r\n    //     string owner;\r\n    // }\r\n\r\n    address public owner;\r\n\r\n    mapping(uint256 => address) public users;\r\n    //mapping(address => mapping(uint256 => data)) public property;\r\n    mapping(address => mapping(uint256 => bool)) public propertyFireBase;\r\n    //mapping(address => mapping(address => bool)) private ;\r\n\r\n    //log\r\n    event LogBool(bool state);\r\n    event LogUint256(uint256 state);\r\n    //event LogFixed128x18(fixed128x18 state);\r\n\r\n    event CreateUserEvent(uint256 _id);\r\n\r\n    event DeclarePropertyEvent(uint256 sender, uint256 value);\r\n\r\n    event TransferPropertyEvent(\r\n        uint256 sender,\r\n        uint256 receiver,\r\n        uint256 value\r\n    );\r\n\r\n    constructor() public {\r\n        owner = (address(this)); //msg.sender;//make contract owner of itself\r\n    }\r\n\r\n    // function createUser(uint256 _id, address _address) public returns (bool) {\r\n    //     //require(users[_id] == _address, \"user already registered\");\r\n    //     users[_id] = _id;\r\n    //     emit CreateUserEvent(_id);\r\n    //     return true;\r\n    // }\r\n    function createUser(uint256 _id, address _address) public returns (bool) {\r\n        require(\r\n            users[_id] == address(0) || users[_id] == _address,\r\n            \"already with different address\"\r\n        );\r\n\r\n        users[_id] = _address;\r\n        //emit CreateUserEvent(_id);\r\n        return true;\r\n    }\r\n\r\n    // function isUserReg(uint256 _id) private returns (bool) {\r\n    //     uint256 state = users[_id];\r\n    //     //emit LogUint256(state);\r\n    //     return state == 0;\r\n    // }\r\n    //function registerLand test\r\n    function registerLand(\r\n        uint256 sender,\r\n        address _address,\r\n        uint256 value\r\n    ) public returns (bool) {\r\n        require(users[sender] != address(0), \"receiver is not registered\");\r\n        require(users[sender] == _address, \"wrong address invalid operation\");\r\n        require(\r\n            !(propertyFireBase[users[sender]][value]),\r\n            \"you own this property\"\r\n        );\r\n        //delete propertyFireBase[users[sender]][value];\r\n        propertyFireBase[users[sender]][value] = true;\r\n        emit DeclarePropertyEvent(sender, value); //, long, lat);\r\n        return true;\r\n    }\r\n\r\n    //function send test\r\n    function transferProperty(\r\n        uint256 sender,\r\n        address _address,\r\n        uint256 receiver,\r\n        uint256 value\r\n    ) public returns (bool) {\r\n        require(users[receiver] != address(0), \"receiver is not registered\");\r\n        require(users[sender] == _address, \"wrong address invalid operation\");\r\n        require(\r\n            propertyFireBase[users[sender]][value],\r\n            \"you do not own this property\"\r\n        );\r\n        delete propertyFireBase[users[sender]][value];\r\n        propertyFireBase[users[receiver]][value] = true;\r\n        emit TransferPropertyEvent(sender, receiver, value); //, long, lat);\r\n        return true;\r\n    }\r\n}\r\n",
  "sourcePath": "D:/work/GUC/land-reg-dapp/contracts/LandReg.sol",
  "compiler": {
    "name": "solc",
    "version": "0.5.16+commit.9c3226ce.Emscripten.clang"
  },
  "schemaVersion": "3.3.1",
  "updatedAt": "2020-11-24T17:57:48.766Z",
  "networkType": "ethereum",
  "devdoc": {
    "methods": {}
  },
  "userdoc": {
    "methods": {}
  }
}