{
  "contractName": "LandReg",
  "abi": [
    {
      "inputs": [],
      "payable": false,
      "stateMutability": "nonpayable",
      "type": "constructor"
    },
    {
      "anonymous": false,
      "inputs": [
        {
          "indexed": false,
          "internalType": "uint256",
          "name": "_id",
          "type": "uint256"
        }
      ],
      "name": "CreateUserEvent",
      "type": "event"
    },
    {
      "anonymous": false,
      "inputs": [
        {
          "indexed": false,
          "internalType": "bool",
          "name": "state",
          "type": "bool"
        }
      ],
      "name": "LogBool",
      "type": "event"
    },
    {
      "anonymous": false,
      "inputs": [
        {
          "indexed": false,
          "internalType": "fixed128x18",
          "name": "state",
          "type": "fixed128x18"
        }
      ],
      "name": "LogFixed128x18",
      "type": "event"
    },
    {
      "anonymous": false,
      "inputs": [
        {
          "indexed": false,
          "internalType": "uint256",
          "name": "state",
          "type": "uint256"
        }
      ],
      "name": "LogUint256",
      "type": "event"
    },
    {
      "constant": true,
      "inputs": [],
      "name": "owner",
      "outputs": [
        {
          "internalType": "address",
          "name": "",
          "type": "address"
        }
      ],
      "payable": false,
      "stateMutability": "view",
      "type": "function"
    },
    {
      "constant": true,
      "inputs": [
        {
          "internalType": "uint256",
          "name": "",
          "type": "uint256"
        }
      ],
      "name": "users",
      "outputs": [
        {
          "internalType": "uint256",
          "name": "",
          "type": "uint256"
        }
      ],
      "payable": false,
      "stateMutability": "view",
      "type": "function"
    },
    {
      "constant": false,
      "inputs": [
        {
          "internalType": "uint256",
          "name": "_id",
          "type": "uint256"
        }
      ],
      "name": "createUser",
      "outputs": [
        {
          "internalType": "bool",
          "name": "",
          "type": "bool"
        }
      ],
      "payable": false,
      "stateMutability": "nonpayable",
      "type": "function"
    },
    {
      "constant": false,
      "inputs": [
        {
          "internalType": "uint256",
          "name": "_id",
          "type": "uint256"
        }
      ],
      "name": "isUserReg",
      "outputs": [
        {
          "internalType": "bool",
          "name": "",
          "type": "bool"
        }
      ],
      "payable": false,
      "stateMutability": "nonpayable",
      "type": "function"
    }
  ],
  "bytecode": "0x608060405234801561001057600080fd5b50336000806101000a81548173ffffffffffffffffffffffffffffffffffffffff021916908373ffffffffffffffffffffffffffffffffffffffff16021790555061028f806100606000396000f3fe608060405234801561001057600080fd5b506004361061004c5760003560e01c8063365b98b21461005157806342bc7ae3146100935780638da5cb5b146100d9578063ffbdff6614610123575b600080fd5b61007d6004803603602081101561006757600080fd5b8101908080359060200190929190505050610169565b6040518082815260200191505060405180910390f35b6100bf600480360360208110156100a957600080fd5b8101908080359060200190929190505050610181565b604051808215151515815260200191505060405180910390f35b6100e16101db565b604051808273ffffffffffffffffffffffffffffffffffffffff1673ffffffffffffffffffffffffffffffffffffffff16815260200191505060405180910390f35b61014f6004803603602081101561013957600080fd5b8101908080359060200190929190505050610200565b604051808215151515815260200191505060405180910390f35b60016020528060005260406000206000915090505481565b600080600160008481526020019081526020016000205490507f535266f26566acd2ef175615d9f1140b36f149b810b33fb93143236a69912c32816040518082815260200191505060405180910390a16001915050919050565b6000809054906101000a900473ffffffffffffffffffffffffffffffffffffffff1681565b60008160016000848152602001908152602001600020819055507f4f8fc56c24d091fe3e708555c4dc0124d915d2ffa9e06b40e782343f636a6cc6826040518082815260200191505060405180910390a16001905091905056fea265627a7a72315820e8c15c33312b97b5fa4b5d01036e538ff73be200fb55ebb9a43f31ca4d116a6964736f6c63430005100032",
  "source": "pragma solidity >=0.4.22 <0.8.0;\r\n\r\n\r\ncontract LandReg {\r\n    //is Ownable{\r\n    address public owner;\r\n    mapping(uint256 => uint256) public users;\r\n    //mapping(address => mapping(address => bool)) private ;\r\n\r\n    //log\r\n    event LogBool(bool state);\r\n    event LogUint256(uint256 state);\r\n    event LogFixed128x18(fixed128x18 state);\r\n\r\n    event CreateUserEvent(uint256 _id);\r\n\r\n    constructor() public {\r\n        owner = msg.sender;\r\n    }\r\n\r\n    function createUser(uint256 _id) public returns (bool) {\r\n        users[_id] = _id;\r\n        emit CreateUserEvent(_id);\r\n        return true;\r\n    }\r\n\r\n    function isUserReg(uint256 _id) public returns (bool) {\r\n        uint256 state = users[_id];\r\n        emit LogUint256(state);\r\n        return true;\r\n    }\r\n\r\n    // function registerLand(fixed128x18 long, fixed128x18 lat)\r\n    //     public\r\n    //     returns (bool)\r\n    // {\r\n        \r\n    //     return true;\r\n    //     }\r\n}\r\n",
  "sourcePath": "D:/work/GUC/land-reg-dapp/contracts/LandReg.sol",
  "compiler": {
    "name": "solc",
    "version": "0.5.16+commit.9c3226ce.Emscripten.clang"
  },
  "schemaVersion": "3.3.1",
  "updatedAt": "2020-11-09T08:55:58.654Z",
  "networkType": "ethereum",
  "devdoc": {
    "methods": {}
  },
  "userdoc": {
    "methods": {}
  }
}