{
  "contractName": "LandReg",
  "abi": [
    {
      "inputs": [],
      "payable": false,
      "stateMutability": "nonpayable",
      "type": "constructor"
    },
    {
      "anonymous": false,
      "inputs": [
        {
          "indexed": false,
          "internalType": "uint256",
          "name": "_id",
          "type": "uint256"
        }
      ],
      "name": "CreateUserEvent",
      "type": "event"
    },
    {
      "anonymous": false,
      "inputs": [
        {
          "indexed": false,
          "internalType": "bool",
          "name": "state",
          "type": "bool"
        }
      ],
      "name": "LogBool",
      "type": "event"
    },
    {
      "anonymous": false,
      "inputs": [
        {
          "indexed": false,
          "internalType": "uint256",
          "name": "state",
          "type": "uint256"
        }
      ],
      "name": "LogUint256",
      "type": "event"
    },
    {
      "anonymous": false,
      "inputs": [
        {
          "indexed": false,
          "internalType": "uint256",
          "name": "sender",
          "type": "uint256"
        },
        {
          "indexed": false,
          "internalType": "uint256",
          "name": "receiver",
          "type": "uint256"
        }
      ],
      "name": "SendSomethingEvent",
      "type": "event"
    },
    {
      "constant": true,
      "inputs": [],
      "name": "owner",
      "outputs": [
        {
          "internalType": "address",
          "name": "",
          "type": "address"
        }
      ],
      "payable": false,
      "stateMutability": "view",
      "type": "function"
    },
    {
      "constant": true,
      "inputs": [
        {
          "internalType": "uint256",
          "name": "",
          "type": "uint256"
        }
      ],
      "name": "users",
      "outputs": [
        {
          "internalType": "uint256",
          "name": "",
          "type": "uint256"
        }
      ],
      "payable": false,
      "stateMutability": "view",
      "type": "function"
    },
    {
      "constant": false,
      "inputs": [
        {
          "internalType": "uint256",
          "name": "_id",
          "type": "uint256"
        }
      ],
      "name": "createUser",
      "outputs": [
        {
          "internalType": "bool",
          "name": "",
          "type": "bool"
        }
      ],
      "payable": false,
      "stateMutability": "nonpayable",
      "type": "function"
    },
    {
      "constant": false,
      "inputs": [
        {
          "internalType": "uint256",
          "name": "sender",
          "type": "uint256"
        },
        {
          "internalType": "uint256",
          "name": "receiver",
          "type": "uint256"
        }
      ],
      "name": "sendSomething",
      "outputs": [
        {
          "internalType": "bool",
          "name": "",
          "type": "bool"
        }
      ],
      "payable": false,
      "stateMutability": "nonpayable",
      "type": "function"
    }
  ],
  "bytecode": "0x608060405234801561001057600080fd5b50336000806101000a81548173ffffffffffffffffffffffffffffffffffffffff021916908373ffffffffffffffffffffffffffffffffffffffff16021790555061039b806100606000396000f3fe608060405234801561001057600080fd5b506004361061004c5760003560e01c8063365b98b2146100515780638da5cb5b14610093578063bdb30da5146100dd578063ffbdff661461012d575b600080fd5b61007d6004803603602081101561006757600080fd5b8101908080359060200190929190505050610173565b6040518082815260200191505060405180910390f35b61009b61018b565b604051808273ffffffffffffffffffffffffffffffffffffffff1673ffffffffffffffffffffffffffffffffffffffff16815260200191505060405180910390f35b610113600480360360408110156100f357600080fd5b8101908080359060200190929190803590602001909291905050506101b0565b604051808215151515815260200191505060405180910390f35b6101596004803603602081101561014357600080fd5b8101908080359060200190929190505050610284565b604051808215151515815260200191505060405180910390f35b60016020528060005260406000206000915090505481565b6000809054906101000a900473ffffffffffffffffffffffffffffffffffffffff1681565b6000806001600084815260200190815260200160002054141561023b576040517f08c379a000000000000000000000000000000000000000000000000000000000815260040180806020018281038252601a8152602001807f7265636569766572206973206e6f74207265676973746572656400000000000081525060200191505060405180910390fd5b7f3a1156610088c8a033798b4553ab496afa27b9bf2ffe3fdb433969130a032a1f8383604051808381526020018281526020019250505060405180910390a16001905092915050565b60008060016000848152602001908152602001600020541461030e576040517f08c379a00000000000000000000000000000000000000000000000000000000081526004018080602001828103825260178152602001807f7573657220616c7265616479207265676973746572656400000000000000000081525060200191505060405180910390fd5b8160016000848152602001908152602001600020819055507f4f8fc56c24d091fe3e708555c4dc0124d915d2ffa9e06b40e782343f636a6cc6826040518082815260200191505060405180910390a16001905091905056fea265627a7a723158207b509ded3a7d31908b1cd5e3df26372e9766726783cd3424191a1f5f4f426f2a64736f6c63430005100032",
  "source": "pragma solidity >=0.4.22 <0.8.0;\r\n\r\ncontract LandReg {\r\n    //is Ownable{\r\n    address public owner;\r\n    mapping(uint256 => uint256) public users;\r\n    //mapping(address => mapping(address => bool)) private ;\r\n\r\n    //log\r\n    event LogBool(bool state);\r\n    event LogUint256(uint256 state);\r\n    //event LogFixed128x18(fixed128x18 state);\r\n\r\n    event CreateUserEvent(uint256 _id);\r\n\r\n    event SendSomethingEvent(\r\n        uint256 sender,\r\n        uint256 receiver//,\r\n        // fixed128x18 long,\r\n        // fixed128x18 lat\r\n    );\r\n\r\n    constructor() public {\r\n        owner = msg.sender;\r\n    }\r\n\r\n    function createUser(uint256 _id) public returns (bool) {\r\n        require(users[_id] == 0, \"user already registered\");\r\n        users[_id] = _id;\r\n        emit CreateUserEvent(_id);\r\n        return true;\r\n    }\r\n\r\n    // function isUserReg(uint256 _id) private returns (bool) {\r\n    //     uint256 state = users[_id];\r\n    //     //emit LogUint256(state);\r\n    //     return state == 0;\r\n    // }\r\n\r\n    //function send test\r\n    function sendSomething(\r\n        uint256 sender,\r\n        uint256 receiver//,\r\n        // fixed128x18 long,\r\n        // fixed128x18 lat\r\n    ) public returns (bool) {\r\n        require(users[receiver] != 0, \"receiver is not registered\");\r\n        emit SendSomethingEvent(sender, receiver);//, long, lat);\r\n        return true;\r\n    }\r\n\r\n    // function registerLand(fixed128x18 long, fixed128x18 lat)\r\n    //     public\r\n    //     returns (bool)\r\n    // {\r\n\r\n    //     return true;\r\n    //     }\r\n}\r\n",
  "sourcePath": "D:/work/GUC/land-reg-dapp/contracts/LandReg.sol",
  "compiler": {
    "name": "solc",
    "version": "0.5.16+commit.9c3226ce.Emscripten.clang"
  },
  "schemaVersion": "3.3.1",
  "updatedAt": "2020-11-16T14:29:42.620Z",
  "networkType": "ethereum",
  "devdoc": {
    "methods": {}
  },
  "userdoc": {
    "methods": {}
  }
}