{
  "contractName": "LandReg",
  "abi": [
    {
      "inputs": [],
      "payable": false,
      "stateMutability": "nonpayable",
      "type": "constructor"
    },
    {
      "anonymous": false,
      "inputs": [
        {
          "indexed": false,
          "internalType": "uint256",
          "name": "_id",
          "type": "uint256"
        }
      ],
      "name": "CreateUserEvent",
      "type": "event"
    },
    {
      "anonymous": false,
      "inputs": [
        {
          "indexed": false,
          "internalType": "uint256",
          "name": "sender",
          "type": "uint256"
        },
        {
          "indexed": false,
          "internalType": "string",
          "name": "value",
          "type": "string"
        }
      ],
      "name": "DeclarePropertyEvent",
      "type": "event"
    },
    {
      "anonymous": false,
      "inputs": [
        {
          "indexed": false,
          "internalType": "bool",
          "name": "state",
          "type": "bool"
        }
      ],
      "name": "LogBool",
      "type": "event"
    },
    {
      "anonymous": false,
      "inputs": [
        {
          "indexed": false,
          "internalType": "uint256",
          "name": "state",
          "type": "uint256"
        }
      ],
      "name": "LogUint256",
      "type": "event"
    },
    {
      "anonymous": false,
      "inputs": [
        {
          "indexed": false,
          "internalType": "uint256",
          "name": "sender",
          "type": "uint256"
        },
        {
          "indexed": false,
          "internalType": "uint256",
          "name": "receiver",
          "type": "uint256"
        },
        {
          "indexed": false,
          "internalType": "string",
          "name": "value",
          "type": "string"
        }
      ],
      "name": "TransferPropertyEvent",
      "type": "event"
    },
    {
      "constant": true,
      "inputs": [],
      "name": "owner",
      "outputs": [
        {
          "internalType": "address",
          "name": "",
          "type": "address"
        }
      ],
      "payable": false,
      "stateMutability": "view",
      "type": "function"
    },
    {
      "constant": true,
      "inputs": [
        {
          "internalType": "address",
          "name": "",
          "type": "address"
        },
        {
          "internalType": "string",
          "name": "",
          "type": "string"
        }
      ],
      "name": "propertyFireBase",
      "outputs": [
        {
          "internalType": "bool",
          "name": "",
          "type": "bool"
        }
      ],
      "payable": false,
      "stateMutability": "view",
      "type": "function"
    },
    {
      "constant": true,
      "inputs": [
        {
          "internalType": "uint256",
          "name": "",
          "type": "uint256"
        }
      ],
      "name": "users",
      "outputs": [
        {
          "internalType": "address",
          "name": "",
          "type": "address"
        }
      ],
      "payable": false,
      "stateMutability": "view",
      "type": "function"
    },
    {
      "constant": false,
      "inputs": [
        {
          "internalType": "uint256",
          "name": "_id",
          "type": "uint256"
        },
        {
          "internalType": "address",
          "name": "_address",
          "type": "address"
        }
      ],
      "name": "createUser",
      "outputs": [
        {
          "internalType": "bool",
          "name": "",
          "type": "bool"
        }
      ],
      "payable": false,
      "stateMutability": "nonpayable",
      "type": "function"
    },
    {
      "constant": false,
      "inputs": [
        {
          "internalType": "uint256",
          "name": "sender",
          "type": "uint256"
        },
        {
          "internalType": "address",
          "name": "_address",
          "type": "address"
        },
        {
          "internalType": "string",
          "name": "value",
          "type": "string"
        }
      ],
      "name": "registerLand",
      "outputs": [
        {
          "internalType": "bool",
          "name": "",
          "type": "bool"
        }
      ],
      "payable": false,
      "stateMutability": "nonpayable",
      "type": "function"
    },
    {
      "constant": false,
      "inputs": [
        {
          "internalType": "uint256",
          "name": "sender",
          "type": "uint256"
        },
        {
          "internalType": "address",
          "name": "_address",
          "type": "address"
        },
        {
          "internalType": "uint256",
          "name": "receiver",
          "type": "uint256"
        },
        {
          "internalType": "string",
          "name": "value",
          "type": "string"
        }
      ],
      "name": "transferProperty",
      "outputs": [
        {
          "internalType": "bool",
          "name": "",
          "type": "bool"
        }
      ],
      "payable": false,
      "stateMutability": "nonpayable",
      "type": "function"
    }
  ],
  "bytecode": "0x608060405234801561001057600080fd5b50306000806101000a81548173ffffffffffffffffffffffffffffffffffffffff021916908373ffffffffffffffffffffffffffffffffffffffff160217905550611126806100606000396000f3fe608060405234801561001057600080fd5b50600436106100625760003560e01c8063365b98b21461006757806364880a8c146100d55780638da5cb5b146101c8578063b854b00f14610212578063eab54aca14610278578063f6c0562b1461037f575b600080fd5b6100936004803603602081101561007d57600080fd5b810190808035906020019092919050505061047c565b604051808273ffffffffffffffffffffffffffffffffffffffff1673ffffffffffffffffffffffffffffffffffffffff16815260200191505060405180910390f35b6101ae600480360360408110156100eb57600080fd5b81019080803573ffffffffffffffffffffffffffffffffffffffff1690602001909291908035906020019064010000000081111561012857600080fd5b82018360208201111561013a57600080fd5b8035906020019184600183028401116401000000008311171561015c57600080fd5b91908080601f016020809104026020016040519081016040528093929190818152602001838380828437600081840152601f19601f8201169050808301925050505050505091929192905050506104af565b604051808215151515815260200191505060405180910390f35b6101d06104f4565b604051808273ffffffffffffffffffffffffffffffffffffffff1673ffffffffffffffffffffffffffffffffffffffff16815260200191505060405180910390f35b61025e6004803603604081101561022857600080fd5b8101908080359060200190929190803573ffffffffffffffffffffffffffffffffffffffff169060200190929190505050610519565b604051808215151515815260200191505060405180910390f35b6103656004803603608081101561028e57600080fd5b8101908080359060200190929190803573ffffffffffffffffffffffffffffffffffffffff16906020019092919080359060200190929190803590602001906401000000008111156102df57600080fd5b8201836020820111156102f157600080fd5b8035906020019184600183028401116401000000008311171561031357600080fd5b91908080601f016020809104026020016040519081016040528093929190818152602001838380828437600081840152601f19601f8201169050808301925050505050505091929192905050506106b4565b604051808215151515815260200191505060405180910390f35b6104626004803603606081101561039557600080fd5b8101908080359060200190929190803573ffffffffffffffffffffffffffffffffffffffff169060200190929190803590602001906401000000008111156103dc57600080fd5b8201836020820111156103ee57600080fd5b8035906020019184600183028401116401000000008311171561041057600080fd5b91908080601f016020809104026020016040519081016040528093929190818152602001838380828437600081840152601f19601f820116905080830192505050505050509192919290505050610c4b565b604051808215151515815260200191505060405180910390f35b60016020528060005260406000206000915054906101000a900473ffffffffffffffffffffffffffffffffffffffff1681565b6002602052816000526040600020818051602081018201805184825260208301602085012081835280955050505050506000915091509054906101000a900460ff1681565b6000809054906101000a900473ffffffffffffffffffffffffffffffffffffffff1681565b60008073ffffffffffffffffffffffffffffffffffffffff166001600085815260200190815260200160002060009054906101000a900473ffffffffffffffffffffffffffffffffffffffff1673ffffffffffffffffffffffffffffffffffffffff1614806105e657508173ffffffffffffffffffffffffffffffffffffffff166001600085815260200190815260200160002060009054906101000a900473ffffffffffffffffffffffffffffffffffffffff1673ffffffffffffffffffffffffffffffffffffffff16145b610658576040517f08c379a000000000000000000000000000000000000000000000000000000000815260040180806020018281038252601e8152602001807f616c7265616479207769746820646966666572656e742061646472657373000081525060200191505060405180910390fd5b816001600085815260200190815260200160002060006101000a81548173ffffffffffffffffffffffffffffffffffffffff021916908373ffffffffffffffffffffffffffffffffffffffff1602179055506001905092915050565b60008073ffffffffffffffffffffffffffffffffffffffff166001600085815260200190815260200160002060009054906101000a900473ffffffffffffffffffffffffffffffffffffffff1673ffffffffffffffffffffffffffffffffffffffff16141561078b576040517f08c379a000000000000000000000000000000000000000000000000000000000815260040180806020018281038252601a8152602001807f7265636569766572206973206e6f74207265676973746572656400000000000081525060200191505060405180910390fd5b8373ffffffffffffffffffffffffffffffffffffffff166001600087815260200190815260200160002060009054906101000a900473ffffffffffffffffffffffffffffffffffffffff1673ffffffffffffffffffffffffffffffffffffffff161461085f576040517f08c379a000000000000000000000000000000000000000000000000000000000815260040180806020018281038252601f8152602001807f77726f6e67206164647265737320696e76616c6964206f7065726174696f6e0081525060200191505060405180910390fd5b600260006001600088815260200190815260200160002060009054906101000a900473ffffffffffffffffffffffffffffffffffffffff1673ffffffffffffffffffffffffffffffffffffffff1673ffffffffffffffffffffffffffffffffffffffff168152602001908152602001600020826040518082805190602001908083835b6020831061090557805182526020820191506020810190506020830392506108e2565b6001836020036101000a038019825116818451168082178552505050505050905001915050908152602001604051809103902060009054906101000a900460ff166109b8576040517f08c379a000000000000000000000000000000000000000000000000000000000815260040180806020018281038252601c8152602001807f796f7520646f206e6f74206f776e20746869732070726f70657274790000000081525060200191505060405180910390fd5b600260006001600088815260200190815260200160002060009054906101000a900473ffffffffffffffffffffffffffffffffffffffff1673ffffffffffffffffffffffffffffffffffffffff1673ffffffffffffffffffffffffffffffffffffffff168152602001908152602001600020826040518082805190602001908083835b60208310610a5e5780518252602082019150602081019050602083039250610a3b565b6001836020036101000a038019825116818451168082178552505050505050905001915050908152602001604051809103902060006101000a81549060ff02191690556001600260006001600087815260200190815260200160002060009054906101000a900473ffffffffffffffffffffffffffffffffffffffff1673ffffffffffffffffffffffffffffffffffffffff1673ffffffffffffffffffffffffffffffffffffffff168152602001908152602001600020836040518082805190602001908083835b60208310610b495780518252602082019150602081019050602083039250610b26565b6001836020036101000a038019825116818451168082178552505050505050905001915050908152602001604051809103902060006101000a81548160ff0219169083151502179055507f5bfe6e0308486516bba19659410562a01ac649a74fc88e40faaf037dfa9329fb8584846040518084815260200183815260200180602001828103825283818151815260200191508051906020019080838360005b83811015610c03578082015181840152602081019050610be8565b50505050905090810190601f168015610c305780820380516001836020036101000a031916815260200191505b5094505050505060405180910390a160019050949350505050565b60008073ffffffffffffffffffffffffffffffffffffffff166001600086815260200190815260200160002060009054906101000a900473ffffffffffffffffffffffffffffffffffffffff1673ffffffffffffffffffffffffffffffffffffffff161415610d22576040517f08c379a000000000000000000000000000000000000000000000000000000000815260040180806020018281038252601a8152602001807f7265636569766572206973206e6f74207265676973746572656400000000000081525060200191505060405180910390fd5b8273ffffffffffffffffffffffffffffffffffffffff166001600086815260200190815260200160002060009054906101000a900473ffffffffffffffffffffffffffffffffffffffff1673ffffffffffffffffffffffffffffffffffffffff1614610df6576040517f08c379a000000000000000000000000000000000000000000000000000000000815260040180806020018281038252601f8152602001807f77726f6e67206164647265737320696e76616c6964206f7065726174696f6e0081525060200191505060405180910390fd5b600260006001600087815260200190815260200160002060009054906101000a900473ffffffffffffffffffffffffffffffffffffffff1673ffffffffffffffffffffffffffffffffffffffff1673ffffffffffffffffffffffffffffffffffffffff168152602001908152602001600020826040518082805190602001908083835b60208310610e9c5780518252602082019150602081019050602083039250610e79565b6001836020036101000a038019825116818451168082178552505050505050905001915050908152602001604051809103902060009054906101000a900460ff1615610f50576040517f08c379a00000000000000000000000000000000000000000000000000000000081526004018080602001828103825260158152602001807f796f75206f776e20746869732070726f7065727479000000000000000000000081525060200191505060405180910390fd5b6001600260006001600088815260200190815260200160002060009054906101000a900473ffffffffffffffffffffffffffffffffffffffff1673ffffffffffffffffffffffffffffffffffffffff1673ffffffffffffffffffffffffffffffffffffffff168152602001908152602001600020836040518082805190602001908083835b60208310610ff85780518252602082019150602081019050602083039250610fd5565b6001836020036101000a038019825116818451168082178552505050505050905001915050908152602001604051809103902060006101000a81548160ff0219169083151502179055507ffb16e682b25275ffa409b44e67dfd9c4b0ed725a9dd235e329989e925edbfd0784836040518083815260200180602001828103825283818151815260200191508051906020019080838360005b838110156110ab578082015181840152602081019050611090565b50505050905090810190601f1680156110d85780820380516001836020036101000a031916815260200191505b50935050505060405180910390a160019050939250505056fea265627a7a72315820f550ce0c5866ae97d86c0eceb45d49b01059924e0d4c7bcba614afc20e2f83c964736f6c63430005100032",
  "source": "pragma solidity >=0.4.22 <0.8.0;\r\n\r\n\r\ncontract LandReg {\r\n    //is Ownable{\r\n\r\n    // struct Data {\r\n    //     string name;\r\n    //     string long;\r\n    //     string lat;\r\n    //     string owner;\r\n    // }\r\n\r\n    address public owner;\r\n\r\n    mapping(uint256 => address) public users;\r\n    //mapping(address => mapping(uint256 => data)) public property;\r\n    mapping(address => mapping(string => bool)) public propertyFireBase;//string string memory\r\n    //mapping(address => mapping(address => bool)) private ;\r\n\r\n    //log\r\n    event LogBool(bool state);\r\n    event LogUint256(uint256 state);\r\n    //event LogFixed128x18(fixed128x18 state);\r\n\r\n    event CreateUserEvent(uint256 _id);\r\n\r\n    event DeclarePropertyEvent(uint256 sender, string value);\r\n\r\n    event TransferPropertyEvent(\r\n        uint256 sender,\r\n        uint256 receiver,\r\n        string value\r\n    );\r\n\r\n    constructor() public {\r\n        owner = (address(this)); //msg.sender;//make contract owner of itself\r\n    }\r\n\r\n    // function createUser(uint256 _id, address _address) public returns (bool) {\r\n    //     //require(users[_id] == _address, \"user already registered\");\r\n    //     users[_id] = _id;\r\n    //     emit CreateUserEvent(_id);\r\n    //     return true;\r\n    // }\r\n    function createUser(uint256 _id, address _address) public returns (bool) {\r\n        require(\r\n            users[_id] == address(0) || users[_id] == _address,\r\n            \"already with different address\"\r\n        );\r\n\r\n        users[_id] = _address;\r\n        //emit CreateUserEvent(_id);\r\n        return true;\r\n    }\r\n\r\n\r\n//  function getProperty(address _address) public view returns (string[] memory) {\r\n//         string[] memory memoryArray = new string[](propertyFireBase[_address].sizeOfMapping);\r\n//         for(uint i = 0; i < propertyFireBase[_address].sizeOfMapping; i++) {\r\n//             memoryArray[i] = propertyFireBase[_address].myMappingInStruct[i];\r\n//         }\r\n//         return memoryArray;\r\n//     }\r\n    // function isUserReg(uint256 _id) private returns (bool) {\r\n    //     uint256 state = users[_id];\r\n    //     //emit LogUint256(state);\r\n    //     return state == 0;\r\n    // }\r\n    //function registerLand test\r\n    function registerLand(\r\n        uint256 sender,\r\n        address _address,\r\n        string memory value\r\n    ) public returns (bool) {\r\n        require(users[sender] != address(0), \"receiver is not registered\");\r\n        require(users[sender] == _address, \"wrong address invalid operation\");\r\n        require(\r\n            !(propertyFireBase[users[sender]][value]),\r\n            \"you own this property\"\r\n        );\r\n        //delete propertyFireBase[users[sender]][value];\r\n        propertyFireBase[users[sender]][value] = true;\r\n        emit DeclarePropertyEvent(sender, value); //, long, lat);\r\n        return true;\r\n    }\r\n\r\n    //function send test\r\n    function transferProperty(\r\n        uint256 sender,\r\n        address _address,\r\n        uint256 receiver,\r\n        string memory value\r\n    ) public returns (bool) {\r\n        require(users[receiver] != address(0), \"receiver is not registered\");\r\n        require(users[sender] == _address, \"wrong address invalid operation\");\r\n        require(\r\n            propertyFireBase[users[sender]][value],\r\n            \"you do not own this property\"\r\n        );\r\n        delete propertyFireBase[users[sender]][value];\r\n        propertyFireBase[users[receiver]][value] = true;\r\n        emit TransferPropertyEvent(sender, receiver, value); //, long, lat);\r\n        return true;\r\n    }\r\n}\r\n",
  "sourcePath": "D:/work/GUC/land-reg-dapp/contracts/landReg.sol",
  "compiler": {
    "name": "solc",
    "version": "0.5.16+commit.9c3226ce.Emscripten.clang"
  },
  "schemaVersion": "3.3.1",
  "updatedAt": "2020-12-02T13:32:38.186Z",
  "networkType": "ethereum",
  "devdoc": {
    "methods": {}
  },
  "userdoc": {
    "methods": {}
  }
}