{
  "contractName": "Payment",
  "abi": [
    {
      "inputs": [],
      "payable": false,
      "stateMutability": "nonpayable",
      "type": "constructor"
    },
    {
      "anonymous": false,
      "inputs": [
        {
          "indexed": false,
          "internalType": "uint256",
          "name": "_id",
          "type": "uint256"
        }
      ],
      "name": "CreateUserEvent",
      "type": "event"
    },
    {
      "anonymous": false,
      "inputs": [
        {
          "indexed": false,
          "internalType": "address",
          "name": "_transferTo",
          "type": "address"
        },
        {
          "indexed": false,
          "internalType": "address",
          "name": "_transferFrom",
          "type": "address"
        },
        {
          "indexed": false,
          "internalType": "uint256",
          "name": "amount",
          "type": "uint256"
        }
      ],
      "name": "TransferFundEvent",
      "type": "event"
    },
    {
      "constant": true,
      "inputs": [],
      "name": "paymentAmount",
      "outputs": [
        {
          "internalType": "uint256",
          "name": "",
          "type": "uint256"
        }
      ],
      "payable": false,
      "stateMutability": "view",
      "type": "function"
    },
    {
      "constant": true,
      "inputs": [],
      "name": "transferFrom",
      "outputs": [
        {
          "internalType": "address payable",
          "name": "",
          "type": "address"
        }
      ],
      "payable": false,
      "stateMutability": "view",
      "type": "function"
    },
    {
      "constant": true,
      "inputs": [],
      "name": "transferTo",
      "outputs": [
        {
          "internalType": "address payable",
          "name": "",
          "type": "address"
        }
      ],
      "payable": false,
      "stateMutability": "view",
      "type": "function"
    },
    {
      "constant": false,
      "inputs": [
        {
          "internalType": "address payable",
          "name": "_transferTo",
          "type": "address"
        }
      ],
      "name": "transferFund",
      "outputs": [
        {
          "internalType": "bool",
          "name": "",
          "type": "bool"
        }
      ],
      "payable": true,
      "stateMutability": "payable",
      "type": "function"
    },
    {
      "constant": false,
      "inputs": [],
      "name": "getBalanceOfCurrentAccount",
      "outputs": [
        {
          "internalType": "uint256",
          "name": "",
          "type": "uint256"
        }
      ],
      "payable": true,
      "stateMutability": "payable",
      "type": "function"
    },
    {
      "constant": false,
      "inputs": [
        {
          "internalType": "uint256",
          "name": "_id",
          "type": "uint256"
        }
      ],
      "name": "createUser",
      "outputs": [
        {
          "internalType": "bool",
          "name": "",
          "type": "bool"
        }
      ],
      "payable": false,
      "stateMutability": "nonpayable",
      "type": "function"
    }
  ],
  "bytecode": "0x608060405234801561001057600080fd5b50336000806101000a81548173ffffffffffffffffffffffffffffffffffffffff021916908373ffffffffffffffffffffffffffffffffffffffff16021790555061049f806100606000396000f3fe6080604052600436106100555760003560e01c80631ab5d2601461005a578063811c34d3146100b1578063c35905c614610108578063cd4558fd14610133578063eba1877b1461018f578063ffbdff66146101ad575b600080fd5b34801561006657600080fd5b5061006f610200565b604051808273ffffffffffffffffffffffffffffffffffffffff1673ffffffffffffffffffffffffffffffffffffffff16815260200191505060405180910390f35b3480156100bd57600080fd5b506100c6610226565b604051808273ffffffffffffffffffffffffffffffffffffffff1673ffffffffffffffffffffffffffffffffffffffff16815260200191505060405180910390f35b34801561011457600080fd5b5061011d61024b565b6040518082815260200191505060405180910390f35b6101756004803603602081101561014957600080fd5b81019080803573ffffffffffffffffffffffffffffffffffffffff169060200190929190505050610251565b604051808215151515815260200191505060405180910390f35b6101976103e8565b6040518082815260200191505060405180910390f35b3480156101b957600080fd5b506101e6600480360360208110156101d057600080fd5b8101908080359060200190929190505050610428565b604051808215151515815260200191505060405180910390f35b600160009054906101000a900473ffffffffffffffffffffffffffffffffffffffff1681565b6000809054906101000a900473ffffffffffffffffffffffffffffffffffffffff1681565b60025481565b600081600160006101000a81548173ffffffffffffffffffffffffffffffffffffffff021916908373ffffffffffffffffffffffffffffffffffffffff160217905550600160009054906101000a900473ffffffffffffffffffffffffffffffffffffffff1673ffffffffffffffffffffffffffffffffffffffff166108fc349081150290604051600060405180830381858888f193505050501580156102fc573d6000803e3d6000fd5b507f4f1af0d23d91de7387b16cedd7f1df53d2cb9709970e128ac2b96e05f441e7b6600160009054906101000a900473ffffffffffffffffffffffffffffffffffffffff166000809054906101000a900473ffffffffffffffffffffffffffffffffffffffff1634604051808473ffffffffffffffffffffffffffffffffffffffff1673ffffffffffffffffffffffffffffffffffffffff1681526020018373ffffffffffffffffffffffffffffffffffffffff1673ffffffffffffffffffffffffffffffffffffffff168152602001828152602001935050505060405180910390a160019050919050565b60008060009054906101000a900473ffffffffffffffffffffffffffffffffffffffff1673ffffffffffffffffffffffffffffffffffffffff1631905090565b60007f4f8fc56c24d091fe3e708555c4dc0124d915d2ffa9e06b40e782343f636a6cc6826040518082815260200191505060405180910390a16001905091905056fea265627a7a72315820014df3fee429033e83ffe8a00fd8bcd26aa1734a849d6cc39894c2f1dfde7fc964736f6c63430005100032",
  "source": "pragma solidity >=0.4.22 <0.8.0;\r\n\r\ncontract Payment {\r\n    address payable public transferFrom;\r\n    address payable public transferTo;\r\n    uint256 public paymentAmount;\r\n\r\n    constructor() public {\r\n        transferFrom = msg.sender;\r\n    }\r\n\r\n    event TransferFundEvent(\r\n        address _transferTo,\r\n        address _transferFrom,\r\n        uint256 amount\r\n    );\r\n    event CreateUserEvent(uint256 _id);\r\n\r\n    function transferFund(address payable _transferTo)\r\n        public\r\n        payable\r\n        returns (bool)\r\n    {\r\n        transferTo = _transferTo;\r\n        transferTo.transfer(msg.value);\r\n        emit TransferFundEvent(transferTo, transferFrom, msg.value);\r\n        return true;\r\n    }\r\n\r\n    function getBalanceOfCurrentAccount() public payable returns (uint256) {\r\n        return transferFrom.balance;\r\n    }\r\n\r\n    function createUser(uint256 _id) public returns (bool) {\r\n        emit CreateUserEvent (_id);\r\n        return true;\r\n    }\r\n}\r\n",
  "sourcePath": "D:/work/GUC/land-reg-dapp/contracts/Payment.sol",
  "compiler": {
    "name": "solc",
    "version": "0.5.16+commit.9c3226ce.Emscripten.clang"
  },
  "schemaVersion": "3.3.1",
  "updatedAt": "2020-11-08T11:21:19.520Z",
  "networkType": "ethereum",
  "devdoc": {
    "methods": {}
  },
  "userdoc": {
    "methods": {}
  }
}